:100000000A128A11D42FFF1B0D2883137F18831720
:100010000008840A0319FF0A080000308A00040857
:10002000840A820700340134023403340434053472
:10003000063402340C3405340434063406344134B6
:1000400054342B3443344E344D3449343D343134FC
:100050002C3432342C3430342C3430342C3430348E
:100060000D340A34003457346134693474346934DB
:100070006E346734203466346F34723420346D3417
:10008000733467342E342E340034533449344D34B1
:100090003934303430342034263420345034493428
:1000A0004334203420342034203400345334493451
:1000B0004D342034443465347434653463347434DA
:1000C00065346434203420342034203400345334F4
:1000D00049344D3420346E346F34743420346634F3
:1000E0006F3475346E34643420342034203400345A
:1000F0004D346F34643475346C3465342034443496
:100100006534743465346334743465346434203451
:1001100000344D346F34643475346C3465342034B9
:100120006E346F347434203466346F3475346E3406
:10013000643400342B344334503449344E343A342C
:100140002034523445344134443459340034413439
:1001500054342B3443344D34473446343D343134F5
:100160000D340A340034413454342B344334503485
:1001700049344E343F340D340A3400344E344F3455
:1001800020344334413452345234493445345234A7
:10019000003441345434453430340D340A3400349E
:1001A00055346E346C3469346E346B3400344534F9
:1001B000523452344F3452340034413454340D34B8
:1001C0000A340034523449344E34473400344F3406
:0401D0004B34003478
:10056E00D5348834C534D034AC34BE340134640050
:10057E008001840A0406031900340406BF2AF00021
:10058E00831203130C1ECC2ACD2AC72A7008990099
:10059E00080000300A128A1148230A128A1101300B
:1005AE000A128A1148230A128A11080083120313B1
:1005BE00981CE22AE32AE52A181218168C1EE82A3D
:1005CE00E92AE52A1A0808007E088A007F088200B8
:1005DE000A128A11EB220A128A118000840A040878
:1005EE007D0603190034FF0A0319FE0AEF2A83164B
:1005FE0003130713871781309900181518128312E9
:10060E0003139817831603139816831203131816E1
:10061E008316031318138312031318130800A13043
:10062E000A128A1162230A128A110A128A11B42539
:10063E000A128A11023A0319252B272B0130282B77
:10064E000030F500F6017508F3007608F400080096
:10065E00CB300A128A1162230A128A110A128A11E7
:10066E00B4250A128A11013A03193E2B402B013090
:10067E00412B0030F500F6017508F3007608F40002
:10068E000800F30083120313081173080A128A116B
:10069E0081230A128A118312031388151A30F2006D
:1006AE00F830F100F10B592BF20B592B000083128D
:1006BE00031388110800F200742B720884000A12CA
:1006CE008A110D200A128A110A128A11C6220A12E2
:1006DE008A110130F1007108F207720884000A12C3
:1006EE008A110D200A128A11003A031D7F2B802BCE
:1006FE00642B0800F000701C852B862B8A2B83122E
:10070E00031308168D2B831203130812F01C902B63
:10071E00912B932B8816942B8812701D972B982B48
:10072E009A2B08179B2B0813F01D9E2B9F2BA12B8A
:10073E008817A22B881308007008F4007108F500C2
:10074E00B22B0130F4070318F50A0030F50701301B
:10075E00F3007308F207720884000A128A110D2042
:10076E000A128A11F300740884008317751C831310
:10077E00730880000008031DC52BC62BA82B08008C
:10078E0083120313C401C501F02B44087907FC0042
:10079E007A08FB000318FB0AC41FD62BFB037B0849
:1007AE00FD007D0883120313FF007C0884000A12EB
:1007BE008A1103200A128A110A128A1159250A1265
:1007CE008A11013083120313C4070318C50A0030BF
:1007DE00C50744087907FC007A08FB000318FB0ADA
:1007EE00C41FFA2BFB037B08FD007D088312031345
:1007FE00FF007C0884000A128A1103200A128A1153
:10080E00003A031D0B2C0C2CCC2B0800F6007603A3
:10081E00031D122C132C302C74087F3EF90079081E
:10082E00F50004300310F50CFF3E031D192C75085E
:10083E00F70079080F39F80077080A128A11482351
:10084E000A128A1178080A128A1148230A128A118A
:10085E00522C02307606031D352C362C522C740881
:10086E00BF3EF9007908F50004300310F50CFF3E89
:10087E00031D3C2C7508F70079080F39F80077082E
:10088E000A128A1148230A128A1178080A128A114A
:10089E0048230A128A11080000300A128A11812395
:1008AE000A128A1103300A128A1148230A128A1177
:1008BE002130F5007630F400F40B632CF50B632C2D
:1008CE00000003300A128A1148230A128A11483096
:1008DE00F5006C30F400F40B722CF50B722C00004A
:1008EE0003300A128A1148230A128A1102300A12A0
:1008FE008A1148230A128A1102300A128A114823D9
:10090E000A128A1108300A128A1148230A128A1111
:10091E0000300A128A1148230A128A110C300A1268
:10092E008A1148230A128A1100300A128A114823AA
:10093E000A128A1106300A128A1148230A128A11E3
:10094E0008000A128A11D0220A128A11F401F40A3E
:10095E0001300A128A110D240A128A113530F9005B
:10096E000030FA000A128A11C7230A128A11F40102
:10097E00F40A02300A128A110D240A128A11A030CA
:10098E00F9000030FA000A128A11C7230A128A11DE
:10099E009030F0000130F1002030F2000A128A117E
:1009AE00A3230A128A1183120313B001B101AE01FF
:1009BE00AF01AC01AD01AA01AB013530F000003042
:1009CE00F1002030F2000A128A11A3230A128A11B2
:1009DE00A030F0000030F1002030F2000A128A112F
:1009EE00A3230A128A1183120313A801A901080076
:1009FE003330F500BB30F400DF30F300F30B052D80
:100A0E00F40B052DF50B052D0C2DB7300A128A119E
:100A1E0062230A128A111A30F5005E30F4006E302D
:100A2E00F300F30B182DF40B182DF50B182D0000F9
:100A3E00CB300A128A1162230A128A111A30F5007B
:100A4E005E30F4006E30F300F30B2B2DF40B2B2DD8
:100A5E00F50B2B2D000095300A128A1162230A1213
:100A6E008A111A30F5005E30F4006E30F300F30B8D
:100A7E003E2DF40B3E2DF50B3E2D00000D300A12CF
:100A8E008A1162230A128A111A30F5005E30F400C0
:100A9E006E30F300F30B512DF40B512DF50B512D40
:100AAE0000000800F40074080F39F2007408F039E1
:100ABE00F3008312031308157308F10004300310BA
:100ACE00F10CFF3E031D662D71080A128A11812357
:100ADE000A128A118312031388153330F5008230FF
:100AEE00F6000000FF30F5070318F60AFF30F60790
:100AFE007608803AFF0080307F02031D882D01307A
:100B0E007502031C8B2D8C2D782D831203138811E7
:100B1E0072080A128A1181230A128A118312031390
:100B2E0088153330F7008230F8000000FF30F707E9
:100B3E000318F80AFF30F8077808803AFF00803073
:100B4E007F02031DAC2D01307702031CAF2DB02D9B
:100B5E009C2D83120313881108004A30840006303E
:100B6E00FF0083138001840AFF0BB82D44308400EC
:100B7E008312031357088000840A58088000840AE1
:100B8E0059088000840A5A088000840A5B08800095
:100B9E00840A5C088000D201D20A262E0A128A111B
:100BAE00DD220A128A1183120313D000D3015308D7
:100BBE004A3E840083130008F0005308443E84002C
:100BCE000008700784000A128A110D200A128A1179
:100BDE005006031DF32DF42D182E0130F00053088E
:100BEE004A3E8400700880075308073E84000A12AC
:100BFE008A110D200A128A11F00053084A3E840011
:100C0E0000087006031D0C2E0D2E1C2E5308013EDF
:100C1E0084000A128A110D200A128A11D100D20103
:100C2E001C2E53084A3E840080010130F0007008EB
:100C3E00D30706305302031C252E262EDE2D520816
:100C4E00031D2A2E2B2ED52D5108080083160313B3
:100C5E0088010A128A1153240A128A110A128A1161
:100C6E00FE220A128A11F401F40A01300A128A11C4
:100C7E000D240A128A113330F9008030FA000A125C
:100C8E008A11C7230A128A11F401F40A02300A12D9
:100C9E008A110D240A128A117730F9008030FA0079
:100CAE000A128A11C7230A128A110A128A112F23D5
:100CBE000A128A11730874040319662E672E4B2EBE
:100CCE00F401F40A02300A128A110D240A128A1152
:100CDE006630F9008030FA000A128A11C7230A1210
:100CEE008A11273083120313D6000D30D50025301C
:100CFE00D400D40B802ED50B802ED60B802E872EB3
:100D0E00F401F40A02300A128A110D240A128A1111
:100D1E005530F9008030FA000A128A11C7230A12E0
:100D2E008A110A128A1116230A128A117308740480
:100D3E000319A22EA32E872EF401F40A02300A12F2
:100D4E008A110D240A128A114430F9008030FA00FB
:100D5E000A128A11C7230A128A112730831203132B
:100D6E00D6000D30D5002530D400D40BBC2ED50BBB
:100D7E00BC2ED60BBC2EC32E0A128A11D0220A12FA
:100D8E008A110A128A11FF240A128A11F401F40A36
:100D9E0001300A128A110D240A128A112130F9002B
:100DAE008030FA000A128A11C7230A128A110A1217
:100DBE008A11E7260A128A11DE2E0A128A110028DB
:100DCE00831203138C1EEC2EED2ED32F0A128A11D2
:100DDE00DD220A128A1183120313B4002B3034065B
:100DEE00031DFA2EFB2EFF2E0130B0000030B10095
:100DFE0043303406031D042F052F0F2F300331040B
:100E0E00031D0A2F0B2F0F2F0230B0000030B10040
:100E1E004D303406031D142F152F202F02303006AF
:100E2E003104031D1B2F1C2F202F0330B000003068
:100E3E00B10054303406031D252F262F312F0330D9
:100E4E0030063104031D2C2F2D2F312F0430B0000E
:100E5E000030B100043030063104031D372F382F17
:100E6E00402FAC01AD010130AE000030AF00B0013B
:100E7E00B1012E032F04031D452F462FD32F0A3009
:100E8E003406031D4B2F4C2F522F0130AA07031887
:100E9E00AB0A0030AB0703302A062B04031D582F74
:100EAE00592F5B2FAA01AB012C08903E8400340809
:100EBE00831780000130AC070318AD0A0030AD0770
:100ECE0002302A062B04031D6D2F6E2F7A2FAE01D2
:100EDE00AF012C08FE3EA8002D080318013EFF3E70
:100EEE00A900AC01AD012E082F04031D7F2F802F0A
:100EFE00D32F0430B2000030B30083120313320834
:100F0E00903E840083170008C6003208313E8400EC
:100F1E004608831380000130B2070318B30A00306D
:100F2E00B3073308803AFF0080307F02031DA12FE4
:100F3E0011303202031CA42FA52F842F2E308312C2
:100F4E000313B2000030B300C02F83120313320814
:100F5E00903E840083170008C6003208723E84005B
:100F6E004608831380000130B2070318B30A00301D
:100F7E00B3073308803AC6002908803A4602031D9B
:100F8E00CA2F28083202031CCD2FCE2FAC2F0A12E7
:100F9E008A11A8240A128A11080083135E30FD00FC
:100FAE000230FE00B730FF00573084000A128A115B
:100FBE00EF220A128A11831790308400CC300A1265
:100FCE008A11BE220A128A118313A0308400C830FF
:100FDE000A128A11BE220A128A112030840044306D
:100FEE000A128A11BE220A128A1183010A128A116A
:020FFE002D2E96
:08400000FF3FFF3FFF3FFF3FC0
:02400E003A3F37
:00000001FF
